{
  "_format": "hh-sol-artifact-1",
  "contractName": "StakingManagerV3",
  "sourceName": "contracts/Staking.sol",
  "abi": [
    {
      "inputs": [],
      "stateMutability": "nonpayable",
      "type": "constructor"
    },
    {
      "inputs": [
        {
          "internalType": "address",
          "name": "target",
          "type": "address"
        }
      ],
      "name": "AddressEmptyCode",
      "type": "error"
    },
    {
      "inputs": [
        {
          "internalType": "address",
          "name": "account",
          "type": "address"
        }
      ],
      "name": "AddressInsufficientBalance",
      "type": "error"
    },
    {
      "inputs": [],
      "name": "FailedInnerCall",
      "type": "error"
    },
    {
      "inputs": [],
      "name": "InvalidInitialization",
      "type": "error"
    },
    {
      "inputs": [],
      "name": "NotInitializing",
      "type": "error"
    },
    {
      "inputs": [
        {
          "internalType": "address",
          "name": "owner",
          "type": "address"
        }
      ],
      "name": "OwnableInvalidOwner",
      "type": "error"
    },
    {
      "inputs": [
        {
          "internalType": "address",
          "name": "account",
          "type": "address"
        }
      ],
      "name": "OwnableUnauthorizedAccount",
      "type": "error"
    },
    {
      "inputs": [],
      "name": "ReentrancyGuardReentrantCall",
      "type": "error"
    },
    {
      "inputs": [
        {
          "internalType": "address",
          "name": "token",
          "type": "address"
        }
      ],
      "name": "SafeERC20FailedOperation",
      "type": "error"
    },
    {
      "anonymous": false,
      "inputs": [
        {
          "indexed": true,
          "internalType": "address",
          "name": "user",
          "type": "address"
        },
        {
          "indexed": false,
          "internalType": "uint256",
          "name": "amount",
          "type": "uint256"
        }
      ],
      "name": "Deposit",
      "type": "event"
    },
    {
      "anonymous": false,
      "inputs": [
        {
          "indexed": true,
          "internalType": "address",
          "name": "user",
          "type": "address"
        },
        {
          "indexed": false,
          "internalType": "uint256",
          "name": "amount",
          "type": "uint256"
        }
      ],
      "name": "HarvestRewards",
      "type": "event"
    },
    {
      "anonymous": false,
      "inputs": [
        {
          "indexed": false,
          "internalType": "uint64",
          "name": "version",
          "type": "uint64"
        }
      ],
      "name": "Initialized",
      "type": "event"
    },
    {
      "anonymous": false,
      "inputs": [
        {
          "indexed": true,
          "internalType": "address",
          "name": "previousOwner",
          "type": "address"
        },
        {
          "indexed": true,
          "internalType": "address",
          "name": "newOwner",
          "type": "address"
        }
      ],
      "name": "OwnershipTransferred",
      "type": "event"
    },
    {
      "anonymous": false,
      "inputs": [
        {
          "indexed": true,
          "internalType": "address",
          "name": "user",
          "type": "address"
        },
        {
          "indexed": false,
          "internalType": "uint256",
          "name": "amount",
          "type": "uint256"
        }
      ],
      "name": "Withdraw",
      "type": "event"
    },
    {
      "inputs": [
        {
          "internalType": "uint16",
          "name": "_epoch",
          "type": "uint16"
        }
      ],
      "name": "claim",
      "outputs": [],
      "stateMutability": "nonpayable",
      "type": "function"
    },
    {
      "inputs": [],
      "name": "currentEpochEndTime",
      "outputs": [
        {
          "internalType": "uint256",
          "name": "",
          "type": "uint256"
        }
      ],
      "stateMutability": "view",
      "type": "function"
    },
    {
      "inputs": [],
      "name": "currentEpochReward",
      "outputs": [
        {
          "internalType": "uint256",
          "name": "",
          "type": "uint256"
        }
      ],
      "stateMutability": "view",
      "type": "function"
    },
    {
      "inputs": [],
      "name": "currentEpochStartTime",
      "outputs": [
        {
          "internalType": "uint256",
          "name": "",
          "type": "uint256"
        }
      ],
      "stateMutability": "view",
      "type": "function"
    },
    {
      "inputs": [
        {
          "internalType": "uint16",
          "name": "_epoch",
          "type": "uint16"
        }
      ],
      "name": "deleteEpoch",
      "outputs": [],
      "stateMutability": "nonpayable",
      "type": "function"
    },
    {
      "inputs": [
        {
          "internalType": "uint256",
          "name": "_amount",
          "type": "uint256"
        }
      ],
      "name": "deposit",
      "outputs": [],
      "stateMutability": "nonpayable",
      "type": "function"
    },
    {
      "inputs": [
        {
          "internalType": "uint256",
          "name": "_amount",
          "type": "uint256"
        }
      ],
      "name": "depositReward",
      "outputs": [],
      "stateMutability": "nonpayable",
      "type": "function"
    },
    {
      "inputs": [],
      "name": "distribute",
      "outputs": [],
      "stateMutability": "nonpayable",
      "type": "function"
    },
    {
      "inputs": [],
      "name": "epochId",
      "outputs": [
        {
          "internalType": "uint16",
          "name": "",
          "type": "uint16"
        }
      ],
      "stateMutability": "view",
      "type": "function"
    },
    {
      "inputs": [
        {
          "internalType": "uint16",
          "name": "",
          "type": "uint16"
        },
        {
          "internalType": "address",
          "name": "",
          "type": "address"
        }
      ],
      "name": "epochLog",
      "outputs": [
        {
          "internalType": "uint256",
          "name": "harvestedReward",
          "type": "uint256"
        },
        {
          "internalType": "uint256",
          "name": "lockedReward",
          "type": "uint256"
        }
      ],
      "stateMutability": "view",
      "type": "function"
    },
    {
      "inputs": [
        {
          "internalType": "address",
          "name": "_user",
          "type": "address"
        }
      ],
      "name": "getRewards",
      "outputs": [
        {
          "internalType": "uint256",
          "name": "",
          "type": "uint256"
        }
      ],
      "stateMutability": "view",
      "type": "function"
    },
    {
      "inputs": [
        {
          "internalType": "address",
          "name": "_stakeTokenAddress",
          "type": "address"
        },
        {
          "internalType": "address",
          "name": "_rewardTokenAddress",
          "type": "address"
        }
      ],
      "name": "initialize",
      "outputs": [],
      "stateMutability": "nonpayable",
      "type": "function"
    },
    {
      "inputs": [],
      "name": "owner",
      "outputs": [
        {
          "internalType": "address",
          "name": "",
          "type": "address"
        }
      ],
      "stateMutability": "view",
      "type": "function"
    },
    {
      "inputs": [],
      "name": "poolStakers",
      "outputs": [
        {
          "internalType": "uint8",
          "name": "key",
          "type": "uint8"
        }
      ],
      "stateMutability": "view",
      "type": "function"
    },
    {
      "inputs": [],
      "name": "renounceOwnership",
      "outputs": [],
      "stateMutability": "nonpayable",
      "type": "function"
    },
    {
      "inputs": [],
      "name": "rewardToken",
      "outputs": [
        {
          "internalType": "contract IERC20",
          "name": "",
          "type": "address"
        }
      ],
      "stateMutability": "view",
      "type": "function"
    },
    {
      "inputs": [
        {
          "internalType": "uint16",
          "name": "_epoch",
          "type": "uint16"
        }
      ],
      "name": "seeReward",
      "outputs": [
        {
          "internalType": "uint256",
          "name": "",
          "type": "uint256"
        }
      ],
      "stateMutability": "view",
      "type": "function"
    },
    {
      "inputs": [
        {
          "internalType": "address",
          "name": "_rewardToken",
          "type": "address"
        }
      ],
      "name": "setRewardToken",
      "outputs": [],
      "stateMutability": "nonpayable",
      "type": "function"
    },
    {
      "inputs": [
        {
          "internalType": "address",
          "name": "_stakeToken",
          "type": "address"
        }
      ],
      "name": "setStakeToken",
      "outputs": [],
      "stateMutability": "nonpayable",
      "type": "function"
    },
    {
      "inputs": [],
      "name": "stakeToken",
      "outputs": [
        {
          "internalType": "contract IERC20",
          "name": "",
          "type": "address"
        }
      ],
      "stateMutability": "view",
      "type": "function"
    },
    {
      "inputs": [
        {
          "internalType": "uint256",
          "name": "_startTime",
          "type": "uint256"
        },
        {
          "internalType": "uint256",
          "name": "_endTime",
          "type": "uint256"
        },
        {
          "internalType": "uint256",
          "name": "_rewardAmount",
          "type": "uint256"
        }
      ],
      "name": "startEpoch",
      "outputs": [],
      "stateMutability": "nonpayable",
      "type": "function"
    },
    {
      "inputs": [],
      "name": "tokensStaked",
      "outputs": [
        {
          "internalType": "uint256",
          "name": "",
          "type": "uint256"
        }
      ],
      "stateMutability": "view",
      "type": "function"
    },
    {
      "inputs": [
        {
          "internalType": "address",
          "name": "newOwner",
          "type": "address"
        }
      ],
      "name": "transferOwnership",
      "outputs": [],
      "stateMutability": "nonpayable",
      "type": "function"
    },
    {
      "inputs": [],
      "name": "unstake",
      "outputs": [],
      "stateMutability": "nonpayable",
      "type": "function"
    },
    {
      "inputs": [
        {
          "internalType": "uint256",
          "name": "_amount",
          "type": "uint256"
        }
      ],
      "name": "withdrawRewardToken",
      "outputs": [],
      "stateMutability": "nonpayable",
      "type": "function"
    },
    {
      "inputs": [
        {
          "internalType": "uint256",
          "name": "_amount",
          "type": "uint256"
        }
      ],
      "name": "withdrawStakeToken",
      "outputs": [],
      "stateMutability": "nonpayable",
      "type": "function"
    }
  ],
  "bytecode": "0x608060405234801561001057600080fd5b5061001961001e565b6100d0565b7ff0c57e16840df040f15088dc2f81fe391c3923bec73e23a9662efc9c229c6a00805468010000000000000000900460ff161561006e5760405163f92ee8a960e01b815260040160405180910390fd5b80546001600160401b03908116146100cd5780546001600160401b0319166001600160401b0390811782556040519081527fc7f505b2f371ae2175ee4913f4499e1f2633a7b5936321eed1cdaeb6115181d29060200160405180910390a15b50565b611a2d806100df6000396000f3fe608060405234801561001057600080fd5b506004361061018e5760003560e01c80638aee8127116100de578063bc2218dd11610097578063e68e035b11610071578063e68e035b14610366578063edac5f3e1461036f578063f2fde38b14610382578063f7c618c11461039557600080fd5b8063bc2218dd14610338578063bed265e01461034b578063e4fc6b6d1461035e57600080fd5b80638aee8127146102cd5780638da5cb5b146102e057806399a03316146102e8578063aa9bbc0c146102f1578063b017d77e14610312578063b6b55f251461032557600080fd5b806339bf1a8e1161014b5780634a43f180116101255780634a43f1801461027e57806351ed6a3014610287578063715018a6146102b257806379ee54f7146102ba57600080fd5b806339bf1a8e1461020d5780633aa2888a14610224578063485cc9551461026b57600080fd5b80630397d458146101935780631c64ae64146101a85780631e2720ff146101cc57806324d51424146101df578063268ef954146101f25780632def662014610205575b600080fd5b6101a66101a13660046117c1565b6103a8565b005b6007546101b59060ff1681565b60405160ff90911681526020015b60405180910390f35b6101a66101da3660046117dc565b6103d2565b6101a66101ed3660046117dc565b610519565b6101a66102003660046117f5565b610542565b6101a6610794565b610216600e5481565b6040519081526020016101c3565b610256610232366004611833565b60106020908152600092835260408084209091529082529020805460019091015482565b604080519283526020830191909152016101c3565b6101a6610279366004611866565b610933565b610216600d5481565b60085461029a906001600160a01b031681565b6040516001600160a01b0390911681526020016101c3565b6101a6610a87565b6102166102c83660046117c1565b610a99565b6101a66102db3660046117c1565b610b68565b61029a610b92565b610216600a5481565b600f546102ff9061ffff1681565b60405161ffff90911681526020016101c3565b6101a6610320366004611882565b610bc0565b6101a66103333660046117dc565b610ca5565b6101a66103463660046117dc565b610da1565b610216610359366004611882565b610dc7565b6101a6610e5c565b610216600b5481565b6101a661037d366004611882565b611022565b6101a66103903660046117c1565b61117d565b60095461029a906001600160a01b031681565b6103b06111b8565b600880546001600160a01b0319166001600160a01b0392909216919091179055565b6103da6111b8565b600081116104265760405162461bcd60e51b8152602060048201526014602482015273616d6f756e742063616e2774206265207a65726f60601b60448201526064015b60405180910390fd5b6009546000906001600160a01b03166323b872dd610442610b92565b6040516001600160e01b031960e084901b1681526001600160a01b039091166004820152306024820152604481018590526064016020604051808303816000875af1158015610495573d6000803e3d6000fd5b505050506040513d601f19601f820116820180604052508101906104b9919061189d565b9050806104fe5760405162461bcd60e51b81526020600482015260136024820152721d1c985b9cd9995c919c9bdb4819985a5b1959606a1b604482015260640161041d565b81600b600082825461051091906118d5565b90915550505050565b6105216111b8565b61053f61052c610b92565b6009546001600160a01b031690836111ea565b50565b61054a6111b8565b600e54831161058b5760405162461bcd60e51b815260206004820152600d60248201526c115c1bd8da081a5cc81c185cdd609a1b604482015260640161041d565b8282116105ea5760405162461bcd60e51b815260206004820152602760248201527f456e642074696d65206d75737420626520626967676572207468616e2073746160448201526672742074696d6560c81b606482015260840161041d565b600081116106315760405162461bcd60e51b8152602060048201526014602482015273616d6f756e742063616e2774206265207a65726f60601b604482015260640161041d565b6009546000906001600160a01b03166323b872dd61064d610b92565b6040516001600160e01b031960e084901b1681526001600160a01b039091166004820152306024820152604481018590526064016020604051808303816000875af11580156106a0573d6000803e3d6000fd5b505050506040513d601f19601f820116820180604052508101906106c4919061189d565b9050806107095760405162461bcd60e51b81526020600482015260136024820152721d1c985b9cd9995c919c9bdb4819985a5b1959606a1b604482015260640161041d565b81600b600082825461071b91906118d5565b9091555050600d849055600e8390556040805180820182528581526020808201868152600f805461ffff90811660009081526011909452948320935184559051600190930192909255815490921691610773836118e8565b91906101000a81548161ffff021916908361ffff1602179055505050505050565b61079c61124e565b60006107a9600333611286565b8051909150806107fb5760405162461bcd60e51b815260206004820152601d60248201527f576974686472617720616d6f756e742063616e2774206265207a65726f000000604482015260640161041d565b60005b600f5461ffff90811690821610156108a95760208084015161ffff83166000908152601190925260409091206001015411801561083e5750602083015115155b156108a15761ffff811660009081526010602090815260408083203380855292529091206001015460095461087e926001600160a01b03909116916111ea565b61ffff811660009081526010602090815260408083203384529091528120600101555b6001016107fe565b506108b56003336112cc565b80600a60008282546108c79190611909565b909155505060405181815233907f884edad9ce6fa2440d8a54cc123490eb96d2768479d49ff9c7366125a94243649060200160405180910390a2600854610918906001600160a01b031633836111ea565b505061093160016000805160206119d883398151915255565b565b7ff0c57e16840df040f15088dc2f81fe391c3923bec73e23a9662efc9c229c6a008054600160401b810460ff16159067ffffffffffffffff166000811580156109795750825b905060008267ffffffffffffffff1660011480156109965750303b155b9050811580156109a4575080155b156109c25760405163f92ee8a960e01b815260040160405180910390fd5b845467ffffffffffffffff1916600117855583156109ec57845460ff60401b1916600160401b1785555b6109f533611419565b6109fd611421565b600f805461ffff19169055600980546001600160a01b038089166001600160a01b03199283161790925560088054928a16929091169190911790558315610a7e57845460ff60401b19168555604051600181527fc7f505b2f371ae2175ee4913f4499e1f2633a7b5936321eed1cdaeb6115181d29060200160405180910390a15b50505050505050565b610a8f6111b8565b6109316000611429565b6000600a54600003610aad57506000919050565b600d54429081118015610ac15750600e5481105b610b1d5760405162461bcd60e51b815260206004820152602760248201527f4f6e6c792062652061626c6520746f207365652074686520726577617264206f6044820152660dc40cae0dec6d60cb1b606482015260840161041d565b6000610b2a600385611286565b9050600b54600a5483600e54610b409190611909565b8351610b4c919061191c565b610b569190611933565b610b60919061191c565b949350505050565b610b706111b8565b600980546001600160a01b0319166001600160a01b0392909216919091179055565b7f9016d09d72d40fdae2fd8ceac6b6234c7706214fd39c1cd1e609a0528c199300546001600160a01b031690565b600f54819061ffff9081169082161115610bec5760405162461bcd60e51b815260040161041d90611955565b610bf46111b8565b60035460005b81811015610c9f576000610c0f60038361149a565b61ffff861660009081526010602090815260408083206001600160a01b038086168552908352928190208151808301909252805482526001015491810182905260095493945092610c6392169084906111ea565b5061ffff851660009081526010602090815260408083206001600160a01b03909416835292905290812081815560019081019190915501610bfa565b50505050565b60008111610cf55760405162461bcd60e51b815260206004820152601c60248201527f4465706f73697420616d6f756e742063616e2774206265207a65726f00000000604482015260640161041d565b6000610d02600333611286565b90508181600001818151610d1691906118d5565b9052506020810151600003610d2c574260208201525b81600a6000828254610d3e91906118d5565b90915550610d509050600333836114cd565b60405182815233907fe1fffcc4923d04b559f4d29a8bfc6cda04eb5b0d3c460751c2402c5c5cc9109c9060200160405180910390a2600854610d9d906001600160a01b0316333085611589565b5050565b610da96111b8565b61053f610db4610b92565b6008546001600160a01b031690836111ea565b600f54600090829061ffff9081169082161115610df65760405162461bcd60e51b815260040161041d90611955565b61ffff8316600090815260106020908152604080832033845290915290206001810154610e515760405162461bcd60e51b8152602060048201526009602482015268139bc81c995dd85c9960ba1b604482015260640161041d565b600101549392505050565b610e646111b8565b600e544211610eac5760405162461bcd60e51b8152602060048201526014602482015273151a1948115c1bd8da08191a591b89dd08195b9960621b604482015260640161041d565b60035460005b81811015610d9d576000610ec760038361149a565b90506000610ed6600383611286565b90508060200151600d54108015610ef25750600e548160200151105b15610fa5576000600d54600e54610f099190611909565b600f5461ffff1660009081526010602090815260408083206001600160a01b03881684529091529020600a5491925090610f4490839061191c565b8360200151600e54610f569190611909565b600b548551610f65919061191c565b610f6f919061191c565b610f799190611933565b816001016000828254610f8c91906118d5565b90915550610f9e9050600385856114cd565b5050611018565b80511561101857600f5461ffff1660009081526010602090815260408083206001600160a01b03861684529091529020600b54600a548351610fe79190611933565b610ff1919061191c565b81600101600082825461100491906118d5565b909155506110169050600384846114cd565b505b5050600101610eb2565b600f54819061ffff908116908216111561104e5760405162461bcd60e51b815260040161041d90611955565b61105661124e565b61ffff8216600090815260106020908152604080832033845290915290206001810154806110b25760405162461bcd60e51b8152602060048201526009602482015268139bc81c995dd85c9960ba1b604482015260640161041d565b60095460405163a9059cbb60e01b8152336004820152602481018390526001600160a01b039091169063a9059cbb906044016020604051808303816000875af1158015611103573d6000803e3d6000fd5b505050506040513d601f19601f82011682018060405250810190611127919061189d565b506000600183015560405181815233907fdaaebb9609cb2f719c59c9d334be287bf4def107ad3dec4a6f90d8abaa94c73c9060200160405180910390a25050610d9d60016000805160206119d883398151915255565b6111856111b8565b6001600160a01b0381166111af57604051631e4fbdf760e01b81526000600482015260240161041d565b61053f81611429565b336111c1610b92565b6001600160a01b0316146109315760405163118cdaa760e01b815233600482015260240161041d565b6040516001600160a01b0383811660248301526044820183905261124991859182169063a9059cbb906064015b604051602081830303815290604052915060e01b6020820180516001600160e01b0383818316178352505050506115c2565b505050565b6000805160206119d883398151915280546001190161128057604051633ee5aeb560e01b815260040160405180910390fd5b60029055565b604080518082018252600080825260209182018190526001600160a01b038416815260018581018352908390208351808501909452805484520154908201525b92915050565b6001600160a01b038116600090815260038301602052604090205460ff166112f2575050565b6001600160a01b03811660009081526003830160209081526040808320805460ff1916905560018086018352818420848155810184905560028601909252822054845490929185916113449190611909565b815481106113545761135461197c565b60009182526020808320909101546001600160a01b039081168084526002880190925260408084208690559086168352822091909155845490915081908590849081106113a3576113a361197c565b600091825260209091200180546001600160a01b0319166001600160a01b039290921691909117905583548490806113dd576113dd611992565b600082815260209020810160001990810180546001600160a01b031916905501905550505050565b60016000805160206119d883398151915255565b611185611625565b611405611625565b7f9016d09d72d40fdae2fd8ceac6b6234c7706214fd39c1cd1e609a0528c19930080546001600160a01b031981166001600160a01b03848116918217845560405192169182907f8be0079c531659141344cd1fd0a4f28419497f9722a3daafe3b4186f6b6457e090600090a3505050565b60008260000182815481106114b1576114b161197c565b6000918252602090912001546001600160a01b03169392505050565b6001600160a01b038216600090815260038401602052604090205460ff161561151c576001600160a01b0391909116600090815260019283016020908152604090912082518155910151910155565b6001600160a01b03821660008181526003850160209081526040808320805460ff19166001908117909155878101835281842086518155868401519082015587546002890184529184208290558101875586835291200180546001600160a01b0319169091179055505050565b6040516001600160a01b038481166024830152838116604483015260648201839052610c9f9186918216906323b872dd90608401611217565b60006115d76001600160a01b0384168361166e565b905080516000141580156115fc5750808060200190518101906115fa919061189d565b155b1561124957604051635274afe760e01b81526001600160a01b038416600482015260240161041d565b7ff0c57e16840df040f15088dc2f81fe391c3923bec73e23a9662efc9c229c6a0054600160401b900460ff1661093157604051631afcd79f60e31b815260040160405180910390fd5b606061167c83836000611683565b9392505050565b6060814710156116a85760405163cd78605960e01b815230600482015260240161041d565b600080856001600160a01b031684866040516116c491906119a8565b60006040518083038185875af1925050503d8060008114611701576040519150601f19603f3d011682016040523d82523d6000602084013e611706565b606091505b5091509150611716868383611720565b9695505050505050565b606082611735576117308261177c565b61167c565b815115801561174c57506001600160a01b0384163b155b1561177557604051639996b31560e01b81526001600160a01b038516600482015260240161041d565b508061167c565b80511561178c5780518082602001fd5b604051630a12f52160e11b815260040160405180910390fd5b80356001600160a01b03811681146117bc57600080fd5b919050565b6000602082840312156117d357600080fd5b61167c826117a5565b6000602082840312156117ee57600080fd5b5035919050565b60008060006060848603121561180a57600080fd5b505081359360208301359350604090920135919050565b803561ffff811681146117bc57600080fd5b6000806040838503121561184657600080fd5b61184f83611821565b915061185d602084016117a5565b90509250929050565b6000806040838503121561187957600080fd5b61184f836117a5565b60006020828403121561189457600080fd5b61167c82611821565b6000602082840312156118af57600080fd5b8151801515811461167c57600080fd5b634e487b7160e01b600052601160045260246000fd5b808201808211156112c6576112c66118bf565b600061ffff8083168181036118ff576118ff6118bf565b6001019392505050565b818103818111156112c6576112c66118bf565b80820281158282048414176112c6576112c66118bf565b60008261195057634e487b7160e01b600052601260045260246000fd5b500490565b6020808252600d908201526c092dcecc2d8d2c8408ae0dec6d609b1b604082015260600190565b634e487b7160e01b600052603260045260246000fd5b634e487b7160e01b600052603160045260246000fd5b6000825160005b818110156119c957602081860181015185830152016119af565b50600092019182525091905056fe9b779b17422d0df92223018b32b4d1fa46e071723d6817e2486d003becc55f00a2646970667358221220936b64aa2edfb3d92257bfe5407e3d419a1cb636047090df0aafb45773a8a38964736f6c63430008180033",
  "linkReferences": {},
  "deployedLinkReferences": {}
}